{
  "_format": "hh-sol-artifact-1",
  "contractName": "BuyMeACoffee",
  "sourceName": "contracts/BuyMeACoffee.sol",
  "abi": [
    {
      "inputs": [],
      "stateMutability": "nonpayable",
      "type": "constructor"
    },
    {
      "inputs": [],
      "name": "EthSentCannotBeZero",
      "type": "error"
    },
    {
      "anonymous": false,
      "inputs": [
        {
          "indexed": true,
          "internalType": "address",
          "name": "from",
          "type": "address"
        },
        {
          "indexed": false,
          "internalType": "uint256",
          "name": "timestamp",
          "type": "uint256"
        },
        {
          "indexed": false,
          "internalType": "string",
          "name": "name",
          "type": "string"
        },
        {
          "indexed": false,
          "internalType": "string",
          "name": "message",
          "type": "string"
        }
      ],
      "name": "NewMemo",
      "type": "event"
    },
    {
      "inputs": [
        {
          "internalType": "string",
          "name": "name",
          "type": "string"
        },
        {
          "internalType": "string",
          "name": "message",
          "type": "string"
        }
      ],
      "name": "buyCoffee",
      "outputs": [],
      "stateMutability": "payable",
      "type": "function"
    },
    {
      "inputs": [],
      "name": "getMemos",
      "outputs": [
        {
          "components": [
            {
              "internalType": "address",
              "name": "from",
              "type": "address"
            },
            {
              "internalType": "uint256",
              "name": "timestamp",
              "type": "uint256"
            },
            {
              "internalType": "string",
              "name": "name",
              "type": "string"
            },
            {
              "internalType": "string",
              "name": "message",
              "type": "string"
            }
          ],
          "internalType": "struct BuyMeACoffee.Memo[]",
          "name": "",
          "type": "tuple[]"
        }
      ],
      "stateMutability": "view",
      "type": "function"
    },
    {
      "inputs": [],
      "name": "withdrawTips",
      "outputs": [],
      "stateMutability": "nonpayable",
      "type": "function"
    }
  ],
  "bytecode": "0x60a060405234801561001057600080fd5b503373ffffffffffffffffffffffffffffffffffffffff1660808173ffffffffffffffffffffffffffffffffffffffff1681525050608051610bf6610060600039600061020a0152610bf66000f3fe6080604052600436106100345760003560e01c8063204206e1146100395780633aaa74b214610055578063865c51721461006c575b600080fd5b610053600480360381019061004e91906105a5565b610097565b005b34801561006157600080fd5b5061006a610208565b005b34801561007857600080fd5b50610081610268565b60405161008e9190610822565b60405180910390f35b600034036100d1576040517f5616846600000000000000000000000000000000000000000000000000000000815260040160405180910390fd5b600060405180608001604052803373ffffffffffffffffffffffffffffffffffffffff16815260200142815260200184815260200183815250908060018154018082558091505060019003906000526020600020906004020160009091909190915060008201518160000160006101000a81548173ffffffffffffffffffffffffffffffffffffffff021916908373ffffffffffffffffffffffffffffffffffffffff1602179055506020820151816001015560408201518160020190816101999190610a50565b5060608201518160030190816101af9190610a50565b5050503373ffffffffffffffffffffffffffffffffffffffff167fc56140e05f516509ae28110e0f72e17558a7561630dad2647c3ae87d986e365c4284846040516101fc93929190610b7b565b60405180910390a25050565b7f000000000000000000000000000000000000000000000000000000000000000073ffffffffffffffffffffffffffffffffffffffff166108fc479081150290604051600060405180830381858888f1935050505061026657600080fd5b565b60606000805480602002602001604051908101604052809291908181526020016000905b8282101561044257838290600052602060002090600402016040518060800160405290816000820160009054906101000a900473ffffffffffffffffffffffffffffffffffffffff1673ffffffffffffffffffffffffffffffffffffffff1673ffffffffffffffffffffffffffffffffffffffff1681526020016001820154815260200160028201805461031f90610873565b80601f016020809104026020016040519081016040528092919081815260200182805461034b90610873565b80156103985780601f1061036d57610100808354040283529160200191610398565b820191906000526020600020905b81548152906001019060200180831161037b57829003601f168201915b505050505081526020016003820180546103b190610873565b80601f01602080910402602001604051908101604052809291908181526020018280546103dd90610873565b801561042a5780601f106103ff5761010080835404028352916020019161042a565b820191906000526020600020905b81548152906001019060200180831161040d57829003601f168201915b5050505050815250508152602001906001019061028c565b50505050905090565b6000604051905090565b600080fd5b600080fd5b600080fd5b600080fd5b6000601f19601f8301169050919050565b7f4e487b7100000000000000000000000000000000000000000000000000000000600052604160045260246000fd5b6104b282610469565b810181811067ffffffffffffffff821117156104d1576104d061047a565b5b80604052505050565b60006104e461044b565b90506104f082826104a9565b919050565b600067ffffffffffffffff8211156105105761050f61047a565b5b61051982610469565b9050602081019050919050565b82818337600083830152505050565b6000610548610543846104f5565b6104da565b90508281526020810184848401111561056457610563610464565b5b61056f848285610526565b509392505050565b600082601f83011261058c5761058b61045f565b5b813561059c848260208601610535565b91505092915050565b600080604083850312156105bc576105bb610455565b5b600083013567ffffffffffffffff8111156105da576105d961045a565b5b6105e685828601610577565b925050602083013567ffffffffffffffff8111156106075761060661045a565b5b61061385828601610577565b9150509250929050565b600081519050919050565b600082825260208201905092915050565b6000819050602082019050919050565b600073ffffffffffffffffffffffffffffffffffffffff82169050919050565b600061067482610649565b9050919050565b61068481610669565b82525050565b6000819050919050565b61069d8161068a565b82525050565b600081519050919050565b600082825260208201905092915050565b60005b838110156106dd5780820151818401526020810190506106c2565b60008484015250505050565b60006106f4826106a3565b6106fe81856106ae565b935061070e8185602086016106bf565b61071781610469565b840191505092915050565b600060808301600083015161073a600086018261067b565b50602083015161074d6020860182610694565b506040830151848203604086015261076582826106e9565b9150506060830151848203606086015261077f82826106e9565b9150508091505092915050565b60006107988383610722565b905092915050565b6000602082019050919050565b60006107b88261061d565b6107c28185610628565b9350836020820285016107d485610639565b8060005b8581101561081057848403895281516107f1858261078c565b94506107fc836107a0565b925060208a019950506001810190506107d8565b50829750879550505050505092915050565b6000602082019050818103600083015261083c81846107ad565b905092915050565b7f4e487b7100000000000000000000000000000000000000000000000000000000600052602260045260246000fd5b6000600282049050600182168061088b57607f821691505b60208210810361089e5761089d610844565b5b50919050565b60008190508160005260206000209050919050565b60006020601f8301049050919050565b600082821b905092915050565b6000600883026109067fffffffffffffffffffffffffffffffffffffffffffffffffffffffffffffffff826108c9565b61091086836108c9565b95508019841693508086168417925050509392505050565b6000819050919050565b600061094d6109486109438461068a565b610928565b61068a565b9050919050565b6000819050919050565b61096783610932565b61097b61097382610954565b8484546108d6565b825550505050565b600090565b610990610983565b61099b81848461095e565b505050565b5b818110156109bf576109b4600082610988565b6001810190506109a1565b5050565b601f821115610a04576109d5816108a4565b6109de846108b9565b810160208510156109ed578190505b610a016109f9856108b9565b8301826109a0565b50505b505050565b600082821c905092915050565b6000610a2760001984600802610a09565b1980831691505092915050565b6000610a408383610a16565b9150826002028217905092915050565b610a59826106a3565b67ffffffffffffffff811115610a7257610a7161047a565b5b610a7c8254610873565b610a878282856109c3565b600060209050601f831160018114610aba5760008415610aa8578287015190505b610ab28582610a34565b865550610b1a565b601f198416610ac8866108a4565b60005b82811015610af057848901518255600182019150602085019450602081019050610acb565b86831015610b0d5784890151610b09601f891682610a16565b8355505b6001600288020188555050505b505050505050565b610b2b8161068a565b82525050565b600082825260208201905092915050565b6000610b4d826106a3565b610b578185610b31565b9350610b678185602086016106bf565b610b7081610469565b840191505092915050565b6000606082019050610b906000830186610b22565b8181036020830152610ba28185610b42565b90508181036040830152610bb68184610b42565b905094935050505056fea26469706673582212209c317d4bb046d9cc841d3a8603e9e35ad4de5ef3995061481d7adb03ba9dfdd964736f6c63430008130033",
  "linkReferences": {},
  "deployedLinkReferences": {}
}